:1000000019C020C01FC01EC01DC01CC01BC01AC00C
:1000100019C018C017C016C015C014C013C012C034
:1000200011C010C00FC00EC00DC00CC00BC00AC064
:1000300009C008C011241FBECFEFD4E0DEBFCDBF82
:1000400002D042C0DDCF28D080917C0080648093B4
:100050007C0080917A00836080937A0080917C009C
:10006000806280937C0080917A00806880937A001F
:1000700080917A00806280937A0080917A00806417
:1000800080937A008091790018D087E893E10197F6
:10009000F1F700C00000F6CF1092C5008CE080930D
:1000A000C400E0ECF0E080818260808388E180938E
:1000B000C10086E08093C20008959091C00095FF32
:0C00C000FCCF8093C6000895F894FFCF99
:00000001FF
