:1000000019C020C01FC01EC01DC01CC01BC01AC00C
:1000100019C018C017C016C015C014C013C012C034
:1000200011C010C00FC00EC00DC00CC00BC00AC064
:1000300009C008C011241FBECFEFD4E0DEBFCDBF82
:1000400002D05EC0DDCF8FEF84B960E081E090E048
:1000500028C075B1262F30E0AC01062E02C0440F37
:10006000551F0A94E2F7742B75B9E1E0F3E5319777
:10007000F1F700C0000075B12F5F3F4FFC0102C0D7
:10008000EE0FFF1F2A95E2F77E2B75B9E3E0F9E248
:100090003197F1F700C0000025B14095422345B9E2
:1000A0006F5F6730B0F227E030E065B1AC01022E3F
:1000B00002C0440F551F0A94E2F7642B65B9E1E0D2
:1000C000F3E53197F1F700C00000E5B12150304071
:1000D000BC01022E02C0660F771F0A94E2F7E62BDE
:1000E000E5B9E3E0F9E23197F1F700C0000065B14E
:1000F0004095462345B921153105B9F660E0A9CFF1
:04010000F894FFCFA1
:00000001FF
