:1000000019C020C01FC01EC01DC01CC01BC01AC00C
:1000100019C018C017C016C015C014C013C012C034
:1000200011C010C00FC00EC00DC00CC00BC00AC064
:1000300009C008C011241FBECFEFD4E0DEBFCDBF82
:1000400002D028C0DDCF8FEF84B981E090E00FC0EF
:100050009C01042E02C0220F331F0A94E2F725B937
:10006000E1E0F3E53197F1F700C000004F5F473062
:1000700078F39C01042E02C0220F331F0A94E2F78A
:1000800025B9E1E0F3E53197F1F700C000004150F8
:0800900081F7EDCFF894FFCFDA
:00000001FF
