:1000000019C020C01FC01EC01DC01CC01BC01AC00C
:1000100019C018C017C016C015C014C013C012C034
:1000200011C010C00FC00EC00DC00CC00BC00AC064
:1000300009C008C011241FBECFEFD4E0DEBFCDBF82
:1000400002D03CC0DDCF80917C00806480937C0036
:1000500080917A00846080937A0080917A00806831
:1000600080937A008FEF84B921E030E080917A00AC
:10007000806480937A0080917A0086FDFCCF809125
:10008000780090917900880F892F881F990B91959E
:1000900015B890E065B1A901092E02C0440F551FA3
:1000A0000A94E2F7642B65B99F5F891798F783ED8F
:1000B00090E30197F1F700C00000D8CFF894FFCF8C
:00000001FF
