:1000000019C020C01FC01EC01DC01CC01BC01AC00C
:1000100019C018C017C016C015C014C013C012C034
:1000200011C010C00FC00EC00DC00CC00BC00AC064
:1000300009C008C011241FBECFEFD4E0DEBFCDBF82
:1000400002D09CC0DDCFCF93DF938FEF84B924E340
:1000500032E181E090E0C5E0D8E040E050E0A5B1B9
:10006000FC01042E02C0EE0FFF1F0A94E2F7AE2B34
:10007000A5B9A1E0B3E51197F1F700C000004F5F0B
:100080005F4F4830510559F740E050E0A5B1FC0101
:10009000042E02C0EE0FFF1F0A94E2F7E095EA2358
:1000A000E5B9E1E0F3E53197F1F700C000004F5FFB
:1000B0005F4F4830510551F747E05CE461E0415043
:1000C00050406040E1F700C00000E7E0F5B1AC014E
:1000D0000E2E02C0440F551F0A94E2F7F42BF5B917
:1000E000A1E0B3E51197F1F700C00000E15070F70F
:1000F000E7E0F5B1AC010E2E02C0440F551F0A9483
:10010000E2F740954F2345B9A1E0B3E51197F1F728
:1001100000C00000E15068F747E05CE461E0415056
:1001200050406040E1F700C00000EBE4B9016C9F73
:1001300090016D9F300D7C9F300D1124275E394C4E
:10014000F5B1432F4770DC0102C0AA0FBB1F4A95CF
:10015000E2F7FA27F5B9A1E0B3E51197F1F700C08E
:100160000000E15019F715B847E05CE461E0415048
:1001700050406040E1F700C000006FCFF894FFCF1F
:00000001FF
