:1000000019C020C01FC01EC01DC01CC01BC01AC00C
:1000100019C018C017C016C015C014C013C012C034
:1000200011C010C00FC00EC00DC00CC00BC00AC064
:1000300009C008C011241FBECFEFD4E0DEBFCDBF82
:100040000AD029C0DDCF85B983EF91E00197F1F7A0
:1000500000C0000008958FEF84B98EE0F4DF88E1DE
:10006000F2DF8DEBF0DF86E7EEDF8CE3ECDF8CE395
:10007000EADF8CE3E8DF86E7E6DF8DEBE4DF88E1AB
:10008000E2DF8EE0E0DF15B883EC99E00197F1F74D
:0A00900000C00000E2CFF894FFCF9B
:00000001FF
